{
  "contractName": "PriceConsumerV3",
  "abi": [
    {
      "inputs": [
        {
          "internalType": "address",
          "name": "priceFeedAddress",
          "type": "address"
        }
      ],
      "name": "getLatestPrice",
      "outputs": [
        {
          "internalType": "int256",
          "name": "",
          "type": "int256"
        }
      ],
      "stateMutability": "view",
      "type": "function"
    }
  ],
  "bytecode": "0x608060405234801561001057600080fd5b5061031d806100206000396000f3fe608060405234801561001057600080fd5b506004361061002b5760003560e01c806316345f1814610030575b600080fd5b61004a60048036038101906100459190610158565b610060565b604051610057919061020f565b60405180910390f35b60008082905060008060008060008573ffffffffffffffffffffffffffffffffffffffff1663feaf968c6040518163ffffffff1660e01b815260040160a06040518083038186803b1580156100b457600080fd5b505afa1580156100c8573d6000803e3d6000fd5b505050506040513d601f19601f820116820180604052508101906100ec9190610185565b94509450945094509450839650505050505050919050565b6000813590506101138161028b565b92915050565b600081519050610128816102a2565b92915050565b60008151905061013d816102b9565b92915050565b600081519050610152816102d0565b92915050565b60006020828403121561016e5761016d610286565b5b600061017c84828501610104565b91505092915050565b600080600080600060a086880312156101a1576101a0610286565b5b60006101af88828901610143565b95505060206101c088828901610119565b94505060406101d18882890161012e565b93505060606101e28882890161012e565b92505060806101f388828901610143565b9150509295509295909350565b6102098161023c565b82525050565b60006020820190506102246000830184610200565b92915050565b600061023582610246565b9050919050565b6000819050919050565b600073ffffffffffffffffffffffffffffffffffffffff82169050919050565b6000819050919050565b600069ffffffffffffffffffff82169050919050565b600080fd5b6102948161022a565b811461029f57600080fd5b50565b6102ab8161023c565b81146102b657600080fd5b50565b6102c281610266565b81146102cd57600080fd5b50565b6102d981610270565b81146102e457600080fd5b5056fea2646970667358221220ba9cc428b0dee054f98a7fe9ec517344f3650d078bf6508a7cf4d92830ea0e4e64736f6c63430008070033",
  "immutableReferences": {},
  "source": "// SPDX-License-Identifier: MIT\r\npragma solidity 0.8.7;\r\n\r\nimport \"@chainlink/contracts/src/v0.8/interfaces/AggregatorV3Interface.sol\";\r\n\r\ncontract PriceConsumerV3 {\r\n    /**\r\n     * Returns the latest price\r\n     */\r\n    function getLatestPrice(address priceFeedAddress) public view returns (int) {\r\n        AggregatorV3Interface priceFeed = AggregatorV3Interface(priceFeedAddress);\r\n        (\r\n            uint80 roundID, \r\n            int price,\r\n            uint startedAt,\r\n            uint timeStamp,\r\n            uint80 answeredInRound\r\n        ) = priceFeed.latestRoundData();\r\n        return price;\r\n    }\r\n}",
  "sourcePath": "C:\\Users\\xtrem\\OneDrive\\Documents\\LearnDAPP_Alyra\\HEROKU\\Staking\\Alyra_Defi_4_Staking\\contracts\\PriceConsumerV3.sol",
  "compiler": {
    "name": "solc",
    "version": "0.8.7+commit.e28d00a7.Emscripten.clang"
  },
  "schemaVersion": "3.4.3",
  "updatedAt": "2021-12-13T14:43:53.931Z",
  "devdoc": {
    "kind": "dev",
    "methods": {},
    "version": 1
  },
  "userdoc": {
    "kind": "user",
    "methods": {
      "getLatestPrice(address)": {
        "notice": "Returns the latest price"
      }
    },
    "version": 1
  }
}